{
  "contractName": "InsuranceContract",
  "abi": [
    {
      "inputs": [],
      "stateMutability": "nonpayable",
      "type": "constructor"
    },
    {
      "anonymous": false,
      "inputs": [
        {
          "indexed": true,
          "internalType": "uint256",
          "name": "claimId",
          "type": "uint256"
        },
        {
          "indexed": true,
          "internalType": "uint256",
          "name": "policyId",
          "type": "uint256"
        },
        {
          "indexed": false,
          "internalType": "uint256",
          "name": "amount",
          "type": "uint256"
        },
        {
          "indexed": false,
          "internalType": "string",
          "name": "ipfsHash",
          "type": "string"
        }
      ],
      "name": "ClaimDeclared",
      "type": "event"
    },
    {
      "anonymous": false,
      "inputs": [
        {
          "indexed": true,
          "internalType": "uint256",
          "name": "claimId",
          "type": "uint256"
        },
        {
          "indexed": false,
          "internalType": "bool",
          "name": "approved",
          "type": "bool"
        }
      ],
      "name": "ClaimValidated",
      "type": "event"
    },
    {
      "anonymous": false,
      "inputs": [
        {
          "indexed": true,
          "internalType": "uint256",
          "name": "claimId",
          "type": "uint256"
        },
        {
          "indexed": true,
          "internalType": "address",
          "name": "beneficiary",
          "type": "address"
        },
        {
          "indexed": false,
          "internalType": "uint256",
          "name": "amount",
          "type": "uint256"
        }
      ],
      "name": "IndemnityPaid",
      "type": "event"
    },
    {
      "anonymous": false,
      "inputs": [
        {
          "indexed": true,
          "internalType": "uint256",
          "name": "policyId",
          "type": "uint256"
        },
        {
          "indexed": true,
          "internalType": "address",
          "name": "insured",
          "type": "address"
        },
        {
          "indexed": false,
          "internalType": "uint256",
          "name": "coverageAmount",
          "type": "uint256"
        }
      ],
      "name": "PolicyCreated",
      "type": "event"
    },
    {
      "anonymous": false,
      "inputs": [
        {
          "indexed": true,
          "internalType": "uint256",
          "name": "policyId",
          "type": "uint256"
        },
        {
          "indexed": false,
          "internalType": "uint256",
          "name": "amount",
          "type": "uint256"
        },
        {
          "indexed": false,
          "internalType": "uint256",
          "name": "timestamp",
          "type": "uint256"
        }
      ],
      "name": "PremiumPaid",
      "type": "event"
    },
    {
      "inputs": [],
      "name": "claimCounter",
      "outputs": [
        {
          "internalType": "uint256",
          "name": "",
          "type": "uint256"
        }
      ],
      "stateMutability": "view",
      "type": "function",
      "constant": true
    },
    {
      "inputs": [
        {
          "internalType": "uint256",
          "name": "",
          "type": "uint256"
        }
      ],
      "name": "claims",
      "outputs": [
        {
          "internalType": "uint256",
          "name": "policyId",
          "type": "uint256"
        },
        {
          "internalType": "address",
          "name": "claimant",
          "type": "address"
        },
        {
          "internalType": "uint256",
          "name": "amountClaimed",
          "type": "uint256"
        },
        {
          "internalType": "string",
          "name": "ipfsHash",
          "type": "string"
        },
        {
          "internalType": "bool",
          "name": "isValidated",
          "type": "bool"
        },
        {
          "internalType": "bool",
          "name": "isPaid",
          "type": "bool"
        },
        {
          "internalType": "uint256",
          "name": "declarationDate",
          "type": "uint256"
        }
      ],
      "stateMutability": "view",
      "type": "function",
      "constant": true
    },
    {
      "inputs": [],
      "name": "owner",
      "outputs": [
        {
          "internalType": "address",
          "name": "",
          "type": "address"
        }
      ],
      "stateMutability": "view",
      "type": "function",
      "constant": true
    },
    {
      "inputs": [
        {
          "internalType": "uint256",
          "name": "",
          "type": "uint256"
        }
      ],
      "name": "policies",
      "outputs": [
        {
          "internalType": "address payable",
          "name": "insured",
          "type": "address"
        },
        {
          "internalType": "uint256",
          "name": "coverageAmount",
          "type": "uint256"
        },
        {
          "internalType": "uint256",
          "name": "premium",
          "type": "uint256"
        },
        {
          "internalType": "uint256",
          "name": "startDate",
          "type": "uint256"
        },
        {
          "internalType": "uint256",
          "name": "endDate",
          "type": "uint256"
        },
        {
          "internalType": "bool",
          "name": "isActive",
          "type": "bool"
        },
        {
          "internalType": "uint256",
          "name": "balance",
          "type": "uint256"
        }
      ],
      "stateMutability": "view",
      "type": "function",
      "constant": true
    },
    {
      "inputs": [],
      "name": "policyCounter",
      "outputs": [
        {
          "internalType": "uint256",
          "name": "",
          "type": "uint256"
        }
      ],
      "stateMutability": "view",
      "type": "function",
      "constant": true
    },
    {
      "inputs": [
        {
          "internalType": "uint256",
          "name": "_coverageAmount",
          "type": "uint256"
        },
        {
          "internalType": "uint256",
          "name": "_premium",
          "type": "uint256"
        },
        {
          "internalType": "uint256",
          "name": "_duration",
          "type": "uint256"
        }
      ],
      "name": "createPolicy",
      "outputs": [
        {
          "internalType": "uint256",
          "name": "",
          "type": "uint256"
        }
      ],
      "stateMutability": "payable",
      "type": "function",
      "payable": true
    },
    {
      "inputs": [
        {
          "internalType": "uint256",
          "name": "_policyId",
          "type": "uint256"
        }
      ],
      "name": "payPremium",
      "outputs": [],
      "stateMutability": "payable",
      "type": "function",
      "payable": true
    },
    {
      "inputs": [
        {
          "internalType": "uint256",
          "name": "_policyId",
          "type": "uint256"
        },
        {
          "internalType": "uint256",
          "name": "_amount",
          "type": "uint256"
        },
        {
          "internalType": "string",
          "name": "_ipfsHash",
          "type": "string"
        }
      ],
      "name": "declareClaim",
      "outputs": [
        {
          "internalType": "uint256",
          "name": "",
          "type": "uint256"
        }
      ],
      "stateMutability": "nonpayable",
      "type": "function"
    },
    {
      "inputs": [
        {
          "internalType": "uint256",
          "name": "_claimId",
          "type": "uint256"
        },
        {
          "internalType": "bool",
          "name": "_approved",
          "type": "bool"
        }
      ],
      "name": "validateClaim",
      "outputs": [],
      "stateMutability": "nonpayable",
      "type": "function"
    },
    {
      "inputs": [
        {
          "internalType": "uint256",
          "name": "_policyId",
          "type": "uint256"
        }
      ],
      "name": "getPolicy",
      "outputs": [
        {
          "internalType": "address",
          "name": "insured",
          "type": "address"
        },
        {
          "internalType": "uint256",
          "name": "coverageAmount",
          "type": "uint256"
        },
        {
          "internalType": "uint256",
          "name": "premium",
          "type": "uint256"
        },
        {
          "internalType": "uint256",
          "name": "startDate",
          "type": "uint256"
        },
        {
          "internalType": "uint256",
          "name": "endDate",
          "type": "uint256"
        },
        {
          "internalType": "bool",
          "name": "isActive",
          "type": "bool"
        },
        {
          "internalType": "uint256",
          "name": "balance",
          "type": "uint256"
        }
      ],
      "stateMutability": "view",
      "type": "function",
      "constant": true
    },
    {
      "inputs": [
        {
          "internalType": "uint256",
          "name": "_claimId",
          "type": "uint256"
        }
      ],
      "name": "getClaim",
      "outputs": [
        {
          "internalType": "uint256",
          "name": "policyId",
          "type": "uint256"
        },
        {
          "internalType": "address",
          "name": "claimant",
          "type": "address"
        },
        {
          "internalType": "uint256",
          "name": "amountClaimed",
          "type": "uint256"
        },
        {
          "internalType": "string",
          "name": "ipfsHash",
          "type": "string"
        },
        {
          "internalType": "bool",
          "name": "isValidated",
          "type": "bool"
        },
        {
          "internalType": "bool",
          "name": "isPaid",
          "type": "bool"
        }
      ],
      "stateMutability": "view",
      "type": "function",
      "constant": true
    },
    {
      "inputs": [],
      "name": "getContractBalance",
      "outputs": [
        {
          "internalType": "uint256",
          "name": "",
          "type": "uint256"
        }
      ],
      "stateMutability": "view",
      "type": "function",
      "constant": true
    }
  ],
  "bytecode": "0x608060405234801561001057600080fd5b50600480546001600160a01b03191633179055600060028190556003556113fb8061003c6000396000f3fe6080604052600436106100a75760003560e01c80636f9fb98a116100645780636f9fb98a146101bd5780638da5cb5b146101d0578063a888c2cd14610208578063d0ab9a891461023b578063d3e894831461024e578063d52c1bea146102b357600080fd5b806315ad6c03146100ac5780632b07fce3146100df5780632f4dbb50146101405780634364b26e146101625780634efa8f17146101755780635aef24471461018b575b600080fd5b3480156100b857600080fd5b506100cc6100c7366004610fbe565b6102c9565b6040519081526020015b60405180910390f35b3480156100eb57600080fd5b506100ff6100fa366004611082565b6105c9565b604080516001600160a01b03909816885260208801969096529486019390935260608501919091526080840152151560a083015260c082015260e0016100d6565b34801561014c57600080fd5b5061016061015b36600461109b565b610687565b005b610160610170366004611082565b6107fb565b34801561018157600080fd5b506100cc60035481565b34801561019757600080fd5b506101ab6101a6366004611082565b610978565b6040516100d696959493929190611116565b3480156101c957600080fd5b50476100cc565b3480156101dc57600080fd5b506004546101f0906001600160a01b031681565b6040516001600160a01b0390911681526020016100d6565b34801561021457600080fd5b50610228610223366004611082565b610b09565b6040516100d6979695949392919061115d565b6100cc6102493660046111a9565b610bde565b34801561025a57600080fd5b506100ff610269366004611082565b60006020819052908152604090208054600182015460028301546003840154600485015460058601546006909601546001600160a01b0390951695939492939192909160ff169087565b3480156102bf57600080fd5b506100cc60025481565b6000836000811180156102de57506002548111155b6103035760405162461bcd60e51b81526004016102fa906111d5565b60405180910390fd5b600085815260208190526040902060050154859060ff166103585760405162461bcd60e51b815260206004820152600f60248201526e506f6c69636520696e61637469766560881b60448201526064016102fa565b60008681526020818152604091829020825160e08101845281546001600160a01b03168082526001830154938201939093526002820154938101939093526003810154606084015260048101546080840152600581015460ff16151560a08401526006015460c083015233146103ff5760405162461bcd60e51b815260206004820152600c60248201526b4e6f6e206175746f7269736560a01b60448201526064016102fa565b806020015186111561045d5760405162461bcd60e51b815260206004820152602160248201527f4d6f6e74616e74207375706572696575722061206c6120636f757665727475726044820152606560f81b60648201526084016102fa565b80608001514211156104a25760405162461bcd60e51b815260206004820152600e60248201526d506f6c696365206578706972656560901b60448201526064016102fa565b600380549060006104b283611217565b90915550506040805160e0810182528881523360208083019182528284018a8152606084018a815260006080860181905260a086018190524260c087015260038054825260019485905296902085518155935192840180546001600160a01b0319166001600160a01b039094169390931790925551600283015551919290919082019061053f90826112b8565b50608082015160048201805460a085015115156101000261ff00199315159390931661ffff199091161791909117905560c0909101516005909101556003546040518891907fb4a42c6441a5e2f2c956828ce8541172d2e906a5179a59406a654c5af3b1bbb4906105b3908a908a90611378565b60405180910390a3505060035495945050505050565b6000806000806000806000876000811180156105e757506002548111155b6106035760405162461bcd60e51b81526004016102fa906111d5565b50505060009586525050506020838152604093849020845160e08101865281546001600160a01b031680825260018301549382018490526002830154968201879052600383015460608301819052600484015460808401819052600585015460ff16151560a0850181905260069095015460c0909401849052919894979650945092565b6004546001600160a01b031633146106ec5760405162461bcd60e51b815260206004820152602260248201527f4e6f6e206175746f726973653a207365756c206c652070726f70726965746169604482015261726560f01b60648201526084016102fa565b6000821180156106fe57506003548211155b6107405760405162461bcd60e51b815260206004820152601360248201527214da5b9a5cdd1c99481a5b995e1a5cdd185b9d606a1b60448201526064016102fa565b6000828152600160205260409020600481015460ff161561079a5760405162461bcd60e51b815260206004820152601460248201527353696e69737472652064656a612074726169746560601b60448201526064016102fa565b60048101805460ff1916600117905560405183907f0ded91305b0bd080e9e66fb99965c8ff8e3cd408b7df0c49eb53db1602a16750906107df90851515815260200190565b60405180910390a281156107f6576107f683610d8d565b505050565b8060008111801561080e57506002548111155b61082a5760405162461bcd60e51b81526004016102fa906111d5565b600082815260208190526040902060050154829060ff1661087f5760405162461bcd60e51b815260206004820152600f60248201526e506f6c69636520696e61637469766560881b60448201526064016102fa565b600083815260208190526040902080546001600160a01b031633146108d55760405162461bcd60e51b815260206004820152600c60248201526b4e6f6e206175746f7269736560a01b60448201526064016102fa565b806002015434101561091f5760405162461bcd60e51b8152602060048201526013602482015272135bdb9d185b9d081a5b9cdd59999a5cd85b9d606a1b60448201526064016102fa565b348160060160008282546109339190611399565b90915550506040805134815242602082015285917f6536289ac4b6210a38c0221448df668e1a60ce83e7642815d4a3642187de26e5910160405180910390a250505050565b6000806000606060008060008711801561099457506003548711155b6109d65760405162461bcd60e51b815260206004820152601360248201527214da5b9a5cdd1c99481a5b995e1a5cdd185b9d606a1b60448201526064016102fa565b6000878152600160208181526040808420815160e08101835281548152938101546001600160a01b031692840192909252600282015490830152600381018054606084019190610a2590611230565b80601f0160208091040260200160405190810160405280929190818152602001828054610a5190611230565b8015610a9e5780601f10610a7357610100808354040283529160200191610a9e565b820191906000526020600020905b815481529060010190602001808311610a8157829003601f168201915b5050509183525050600482015460ff80821615156020808501919091526101009092041615156040808401919091526005909301546060928301528351908401519284015191840151608085015160a090950151919d939c50919a5090985091965090945092505050565b600160208190526000918252604090912080549181015460028201546003830180546001600160a01b03909316939192610b4290611230565b80601f0160208091040260200160405190810160405280929190818152602001828054610b6e90611230565b8015610bbb5780601f10610b9057610100808354040283529160200191610bbb565b820191906000526020600020905b815481529060010190602001808311610b9e57829003601f168201915b505050506004830154600590930154919260ff8082169361010090920416915087565b600082341015610c255760405162461bcd60e51b81526020600482015260126024820152715072696d6520696e737566666973616e746560701b60448201526064016102fa565b60008411610c755760405162461bcd60e51b815260206004820152601e60248201527f4d6f6e74616e7420646520636f757665727475726520696e76616c696465000060448201526064016102fa565b60028054906000610c8583611217565b91905055506040518060e00160405280336001600160a01b031681526020018581526020018481526020014281526020018342610cc29190611399565b81526001602080830182905234604093840152600280546000908152808352849020855181546001600160a01b0319166001600160a01b0390911617815585830151938101939093558484015183820155606085015160038401556080850151600484015560a085015160058401805460ff191691151591909117905560c0909401516006909201919091559154905186815233927f601882301d3e3fce7fe3a99d4bb17ef5b6699b417bdd29f2bfb82e19fcbcb660910160405180910390a3506002549392505050565b6000818152600160205260409020600481015460ff16610de55760405162461bcd60e51b815260206004820152601360248201527253696e6973747265206e6f6e2076616c69646560681b60448201526064016102fa565b6004810154610100900460ff1615610e305760405162461bcd60e51b815260206004820152600e60248201526d44656a6120696e64656d6e69736560901b60448201526064016102fa565b80546000908152602081905260409020600282015460068201541015610e8c5760405162461bcd60e51b815260206004820152601160248201527014dbdb1919481a5b9cdd59999a5cd85b9d607a1b60448201526064016102fa565b60048201805461ff0019166101001790556002820154600682018054600090610eb69084906113b2565b9091555050600182015460028301546040516000926001600160a01b031691908381818185875af1925050503d8060008114610f0e576040519150601f19603f3d011682016040523d82523d6000602084013e610f13565b606091505b5050905080610f575760405162461bcd60e51b815260206004820152601060248201526f5472616e7366657274206563686f756560801b60448201526064016102fa565b600183015460028401546040519081526001600160a01b039091169085907ffcbfd3d6ba3d160104a6f625e3b9b6939b1c554d0f5739c97a6bcaa04e353c0e9060200160405180910390a350505050565b634e487b7160e01b600052604160045260246000fd5b600080600060608486031215610fd357600080fd5b8335925060208401359150604084013567ffffffffffffffff80821115610ff957600080fd5b818601915086601f83011261100d57600080fd5b81358181111561101f5761101f610fa8565b604051601f8201601f19908116603f0116810190838211818310171561104757611047610fa8565b8160405282815289602084870101111561106057600080fd5b8260208601602083013760006020848301015280955050505050509250925092565b60006020828403121561109457600080fd5b5035919050565b600080604083850312156110ae57600080fd5b82359150602083013580151581146110c557600080fd5b809150509250929050565b6000815180845260005b818110156110f6576020818501810151868301820152016110da565b506000602082860101526020601f19601f83011685010191505092915050565b86815260018060a01b038616602082015284604082015260c06060820152600061114360c08301866110d0565b93151560808301525090151560a090910152949350505050565b87815260018060a01b038716602082015285604082015260e06060820152600061118a60e08301876110d0565b94151560808301525091151560a083015260c090910152949350505050565b6000806000606084860312156111be57600080fd5b505081359360208301359350604090920135919050565b602080825260129082015271506f6c69636520696e6578697374616e746560701b604082015260600190565b634e487b7160e01b600052601160045260246000fd5b60006001820161122957611229611201565b5060010190565b600181811c9082168061124457607f821691505b60208210810361126457634e487b7160e01b600052602260045260246000fd5b50919050565b601f8211156107f657600081815260208120601f850160051c810160208610156112915750805b601f850160051c820191505b818110156112b05782815560010161129d565b505050505050565b815167ffffffffffffffff8111156112d2576112d2610fa8565b6112e6816112e08454611230565b8461126a565b602080601f83116001811461131b57600084156113035750858301515b600019600386901b1c1916600185901b1785556112b0565b600085815260208120601f198616915b8281101561134a5788860151825594840194600190910190840161132b565b50858210156113685787850151600019600388901b60f8161c191681555b5050505050600190811b01905550565b82815260406020820152600061139160408301846110d0565b949350505050565b808201808211156113ac576113ac611201565b92915050565b818103818111156113ac576113ac61120156fea26469706673582212203194b30832c6ee7bdb46d5263943595f80df796595d8dec1ea01fecf7bab7a6864736f6c63430008130033",
  "immutableReferences": {},
  "source": "// SPDX-License-Identifier: MIT\npragma solidity ^0.8.19;\n\n/**\n * @title InsuranceContract\n * @dev Contrat principal pour la gestion dcentralise des assurances\n */\ncontract InsuranceContract {\n\n    // Structure de donnes pour une police d'assurance\n    struct Policy {\n        address payable insured;        // Adresse de l'assur\n        uint256 coverageAmount;         // Montant de couverture\n        uint256 premium;                // Prime mensuelle\n        uint256 startDate;              // Date de dbut\n        uint256 endDate;                // Date de fin\n        bool isActive;                  // Statut actif/inactif\n        uint256 balance;                // Solde du contrat\n    }\n\n    // Structure pour une dclaration de sinistre\n    struct Claim {\n        uint256 policyId;               // ID de la police concerne\n        address claimant;               // Adresse du dclarant\n        uint256 amountClaimed;          // Montant rclam\n        string ipfsHash;                // Hash IPFS des preuves\n        bool isValidated;               // Sinistre valid ?\n        bool isPaid;                    // Indemnisation paye ?\n        uint256 declarationDate;        // Date de dclaration\n    }\n\n    // Variables d'tat\n    mapping(uint256 => Policy) public policies;\n    mapping(uint256 => Claim) public claims;\n    uint256 public policyCounter;\n    uint256 public claimCounter;\n    address public owner;\n\n    // vnements\n    event PolicyCreated(\n        uint256 indexed policyId,\n        address indexed insured,\n        uint256 coverageAmount\n    );\n\n    event PremiumPaid(\n        uint256 indexed policyId,\n        uint256 amount,\n        uint256 timestamp\n    );\n\n    event ClaimDeclared(\n        uint256 indexed claimId,\n        uint256 indexed policyId,\n        uint256 amount,\n        string ipfsHash\n    );\n\n    event ClaimValidated(\n        uint256 indexed claimId,\n        bool approved\n    );\n\n    event IndemnityPaid(\n        uint256 indexed claimId,\n        address indexed beneficiary,\n        uint256 amount\n    );\n\n    // Modificateurs\n    modifier onlyOwner() {\n        require(msg.sender == owner, \"Non autorise: seul le proprietaire\");\n        _;\n    }\n\n    modifier policyExists(uint256 _policyId) {\n        require(_policyId > 0 && _policyId <= policyCounter, \"Police inexistante\");\n        _;\n    }\n\n    modifier policyActive(uint256 _policyId) {\n        require(policies[_policyId].isActive, \"Police inactive\");\n        _;\n    }\n\n    // Constructeur\n    constructor() {\n        owner = msg.sender;\n        policyCounter = 0;\n        claimCounter = 0;\n    }\n\n    /**\n     * @dev Crer une nouvelle police d'assurance\n     * @param _coverageAmount Montant de la couverture\n     * @param _premium Prime mensuelle\n     * @param _duration Dure en secondes\n     */\n    function createPolicy(\n        uint256 _coverageAmount,\n        uint256 _premium,\n        uint256 _duration\n    ) public payable returns (uint256) {\n        require(msg.value >= _premium, \"Prime insuffisante\");\n        require(_coverageAmount > 0, \"Montant de couverture invalide\");\n\n        policyCounter++;\n\n        policies[policyCounter] = Policy({\n            insured: payable(msg.sender),\n            coverageAmount: _coverageAmount,\n            premium: _premium,\n            startDate: block.timestamp,\n            endDate: block.timestamp + _duration,\n            isActive: true,\n            balance: msg.value\n        });\n\n        emit PolicyCreated(policyCounter, msg.sender, _coverageAmount);\n        return policyCounter;\n    }\n\n    /**\n     * @dev Payer une prime pour une police existante\n     * @param _policyId ID de la police\n     */\n    function payPremium(uint256 _policyId)\n        public\n        payable\n        policyExists(_policyId)\n        policyActive(_policyId)\n    {\n        Policy storage policy = policies[_policyId];\n        require(msg.sender == policy.insured, \"Non autorise\");\n        require(msg.value >= policy.premium, \"Montant insuffisant\");\n\n        policy.balance += msg.value;\n\n        emit PremiumPaid(_policyId, msg.value, block.timestamp);\n    }\n\n    /**\n     * @dev Dclarer un sinistre\n     * @param _policyId ID de la police\n     * @param _amount Montant rclam\n     * @param _ipfsHash Hash IPFS des documents de preuve\n     */\n    function declareClaim(\n        uint256 _policyId,\n        uint256 _amount,\n        string memory _ipfsHash\n    )\n        public\n        policyExists(_policyId)\n        policyActive(_policyId)\n        returns (uint256)\n    {\n        Policy memory policy = policies[_policyId];\n        require(msg.sender == policy.insured, \"Non autorise\");\n        require(_amount <= policy.coverageAmount, \"Montant superieur a la couverture\");\n        require(block.timestamp <= policy.endDate, \"Police expiree\");\n\n        claimCounter++;\n\n        claims[claimCounter] = Claim({\n            policyId: _policyId,\n            claimant: msg.sender,\n            amountClaimed: _amount,\n            ipfsHash: _ipfsHash,\n            isValidated: false,\n            isPaid: false,\n            declarationDate: block.timestamp\n        });\n\n        emit ClaimDeclared(claimCounter, _policyId, _amount, _ipfsHash);\n        return claimCounter;\n    }\n\n    /**\n     * @dev Valider un sinistre (appel par l'expert/oracle)\n     * @param _claimId ID du sinistre\n     * @param _approved True pour approuver, false pour rejeter\n     */\n    function validateClaim(uint256 _claimId, bool _approved)\n        public\n        onlyOwner\n    {\n        require(_claimId > 0 && _claimId <= claimCounter, \"Sinistre inexistant\");\n\n        Claim storage claim = claims[_claimId];\n        require(!claim.isValidated, \"Sinistre deja traite\");\n\n        claim.isValidated = true;\n\n        emit ClaimValidated(_claimId, _approved);\n\n        if (_approved) {\n            _payIndemnity(_claimId);\n        }\n    }\n\n    /**\n     * @dev Payer l'indemnisation (fonction interne)\n     * @param _claimId ID du sinistre\n     */\n    function _payIndemnity(uint256 _claimId) internal {\n        Claim storage claim = claims[_claimId];\n        require(claim.isValidated, \"Sinistre non valide\");\n        require(!claim.isPaid, \"Deja indemnise\");\n\n        Policy storage policy = policies[claim.policyId];\n        require(policy.balance >= claim.amountClaimed, \"Solde insuffisant\");\n\n        claim.isPaid = true;\n        policy.balance -= claim.amountClaimed;\n\n        // Transfert des fonds\n        (bool success, ) = payable(claim.claimant).call{value: claim.amountClaimed}(\"\");\n        require(success, \"Transfert echoue\");\n\n        emit IndemnityPaid(_claimId, claim.claimant, claim.amountClaimed);\n    }\n\n    /**\n     * @dev Obtenir les dtails d'une police\n     */\n    function getPolicy(uint256 _policyId)\n        public\n        view\n        policyExists(_policyId)\n        returns (\n            address insured,\n            uint256 coverageAmount,\n            uint256 premium,\n            uint256 startDate,\n            uint256 endDate,\n            bool isActive,\n            uint256 balance\n        )\n    {\n        Policy memory policy = policies[_policyId];\n        return (\n            policy.insured,\n            policy.coverageAmount,\n            policy.premium,\n            policy.startDate,\n            policy.endDate,\n            policy.isActive,\n            policy.balance\n        );\n    }\n\n    /**\n     * @dev Obtenir les dtails d'un sinistre\n     */\n    function getClaim(uint256 _claimId)\n        public\n        view\n        returns (\n            uint256 policyId,\n            address claimant,\n            uint256 amountClaimed,\n            string memory ipfsHash,\n            bool isValidated,\n            bool isPaid\n        )\n    {\n        require(_claimId > 0 && _claimId <= claimCounter, \"Sinistre inexistant\");\n\n        Claim memory claim = claims[_claimId];\n        return (\n            claim.policyId,\n            claim.claimant,\n            claim.amountClaimed,\n            claim.ipfsHash,\n            claim.isValidated,\n            claim.isPaid\n        );\n    }\n\n    /**\n     * @dev Obtenir le solde du contrat\n     */\n    function getContractBalance() public view returns (uint256) {\n        return address(this).balance;\n    }\n}\n",
  "sourcePath": "/app/contracts/InsuranceContract.sol",
  "compiler": {
    "name": "solc",
    "version": "0.8.19+commit.7dd6d404.Emscripten.clang"
  },
  "schemaVersion": "3.4.16",
  "updatedAt": "2025-12-13T04:48:43.290Z",
  "networkType": "ethereum",
  "devdoc": {
    "details": "Contrat principal pour la gestion dcentralise des assurances",
    "kind": "dev",
    "methods": {
      "createPolicy(uint256,uint256,uint256)": {
        "details": "Crer une nouvelle police d'assurance",
        "params": {
          "_coverageAmount": "Montant de la couverture",
          "_duration": "Dure en secondes",
          "_premium": "Prime mensuelle"
        }
      },
      "declareClaim(uint256,uint256,string)": {
        "details": "Dclarer un sinistre",
        "params": {
          "_amount": "Montant rclam",
          "_ipfsHash": "Hash IPFS des documents de preuve",
          "_policyId": "ID de la police"
        }
      },
      "getClaim(uint256)": {
        "details": "Obtenir les dtails d'un sinistre"
      },
      "getContractBalance()": {
        "details": "Obtenir le solde du contrat"
      },
      "getPolicy(uint256)": {
        "details": "Obtenir les dtails d'une police"
      },
      "payPremium(uint256)": {
        "details": "Payer une prime pour une police existante",
        "params": {
          "_policyId": "ID de la police"
        }
      },
      "validateClaim(uint256,bool)": {
        "details": "Valider un sinistre (appel par l'expert/oracle)",
        "params": {
          "_approved": "True pour approuver, false pour rejeter",
          "_claimId": "ID du sinistre"
        }
      }
    },
    "title": "InsuranceContract",
    "version": 1
  },
  "userdoc": {
    "kind": "user",
    "methods": {},
    "version": 1
  }
}